:020000040800F2
:1000000000000220951F00084D1F00084F1F000828
:10001000511F0008531F0008551F00080000000072
:10002000000000000000000000000000571F000852
:10003000591F0008000000005B1F00085D1F00083A
:10004000E51F0008E51F0008E51F0008E51F000880
:10005000E51F0008E51F0008E51F0008E51F000870
:10006000E51F0008E51F0008E51F0008E51F000860
:10007000E51F0008E51F0008E51F0008E51F000850
:10008000E51F0008E51F0008E51F0008E51F000840
:10009000E51F0008E51F0008E51F0008E51F000830
:1000A000E51F0008E51F0008E51F0008E51F000820
:1000B000E51F0008E51F0008E51F0008E51F000810
:1000C000E51F0008E51F0008E51F0008E51F000800
:1000D000E51F0008E51F0008651F0008E51F000870
:1000E000E51F0008E51F0008E51F0008E51F0008E0
:1000F000E51F0008E51F0008E51F0008E51F0008D0
:10010000E51F0008E51F0008E51F0008E51F0008BF
:10011000E51F0008E51F0008E51F0008E51F0008AF
:10012000751F0008E51F0008E51F0008E51F00080F
:10013000E51F0008E51F0008E51F0008E51F00088F
:10014000E51F0008E51F0008E51F0008E51F00087F
:10015000E51F0008E51F0008E51F0008E51F00086F
:10016000E51F0008E51F0008E51F0008E51F00085F
:10017000E51F0008E51F0008E51F0008000000005B
:08018000E51F0008E51F00085F
:1001880010B5054C237833B9044B13B10448AFF3C9
:1001980000800123237010BD4404002000000000EB
:1001A8005450000808B5034B1BB103490348AFF38B
:1001B800008008BD000000004804002054500008DA
:1001C8004FF0FF0C1CEAD0521EBF1CEAD15392EA32
:1001D8000C0F93EA0C0F6FD01A4480EA010C40020E
:1001E80018BF5FEA41211ED04FF0006343EA501068
:1001F80043EA5111A0FB01310CF00040B1F5000FAA
:100208003EBF490041EAD3715B0040EA010062F158
:100218007F02FD2A1DD8B3F1004F40EBC25008BF42
:1002280020F00100704790F0000F0CF0004C08BF60
:1002380049024CEA502040EA51207F3AC2BFD2F12D
:10024800FF0340EAC250704740F400004FF000033B
:10025800013A5DDC12F1190FDCBF00F00040704775
:10026800C2F10002410021FA02F1C2F1200200FAB3
:1002780002FC5FEA310040F1000053EA4C0308BF7A
:1002880020EADC70704792F0000F00F0004C02BFCB
:10029800400010F4000F013AF9D040EA0C0093F046
:1002A800000F01F0004C02BF490011F4000F013BA0
:1002B800F9D041EA0C018FE70CEAD15392EA0C0F0E
:1002C80018BF93EA0C0F0AD030F0004C18BF31F079
:1002D800004CD8D180EA010000F00040704790F04F
:1002E800000F17BF90F0004F084691F0000F91F0F3
:1002F800004F14D092EA0C0F01D142020FD193EAB9
:100308000C0F03D14B0218BF084608D180EA010040
:1003180000F0004040F0FE4040F40000704740F01C
:10032800FE4040F44000704780F0004002E000BF0B
:1003380081F0004142001FBF5FEA410392EA030FC8
:100348007FEA226C7FEA236C6AD04FEA1262D2EB12
:100358001363C1BFD218414048404140B8BF5B4217
:10036800192B88BF704710F0004F40F4000020F0B0
:100378007F4018BF404211F0004F41F4000121F0C6
:100388007F4118BF494292EA030F3FD0A2F1010210
:1003980041FA03FC10EB0C00C3F1200301FA03F14E
:1003A80000F0004302D5494260EB4000B0F5000F71
:1003B80013D3B0F1807F06D340084FEA310102F130
:1003C8000102FE2A51D2B1F1004F40EBC25008BFE2
:1003D80020F0010040EA03007047490040EB0000AC
:1003E800013A28BFB0F5000FEDD2B0FA80FCACF1AD
:1003F800080CB2EB0C0200FA0CF0AABF00EBC250DA
:1004080052421843BCBFD0401843704792F0000FC7
:1004180081F4000106BF80F400000132013BB5E71A
:100428004FEA41037FEA226C18BF7FEA236C21D090
:1004380092EA030F04D092F0000F08BF08467047F5
:1004480090EA010F1CBF0020704712F07F4F04D1C3
:10045800400028BF40F00040704712F100723CBFD6
:1004680000F50000704700F0004343F0FE4040F400
:10047800000070477FEA226216BF08467FEA2363BE
:100488000146420206BF5FEA412390EA010F40F4A9
:10049800800070474FF0000304E000BF10F00043F5
:1004A80048BF40425FEA000C08BF704743F09643DC
:1004B80001464FF000001CE050EA010208BF7047F7
:1004C8004FF000030AE000BF50EA010208BF70477E
:1004D80011F0004302D5404261EB41015FEA010C93
:1004E80002BF84460146002043F0B64308BFA3F18B
:1004F8008053A3F50003BCFA8CF2083AA3EBC2536D
:1005080010DB01FA02FC634400FA02FCC2F120028B
:10051800BCF1004F20FA02F243EB020008BF20F0C2
:100528000100704702F1200201FA02FCC2F1200228
:1005380050EA4C0021FA02F243EB020008BF20EA1D
:10054800DC7070474FF0FF3C06E000BF4FF0010C35
:1005580002E000BF4FF0010C4DF804CD4FEA400215
:100568004FEA41037FEA226C18BF7FEA236C11D05F
:1005780001B052EA530C18BF90EA010F58BFB2EB12
:10058800030088BFC81738BF6FEAE17018BF40F092
:10059800010070477FEA226C02D15FEA402C05D146
:1005A8007FEA236CE4D15FEA412CE1D05DF8040BCB
:1005B800704700BF844608466146FFE70FB5FFF75E
:1005C800C9FF002848BF10F1000F0FBD4DF808ED16
:1005D800FFF7F4FF0CBF012000205DF808FB00BF07
:1005E8004DF808EDFFF7EAFF34BF012000205DF861
:1005F80008FB00BF4DF808EDFFF7E0FF94BF0120AE
:1006080000205DF808FB00BF4DF808EDFFF7D2FFAA
:1006180094BF012000205DF808FB00BF4DF808EDED
:10062800FFF7C8FF34BF012000205DF808FB00BFBA
:100638004FEA4002B2F1FE4F0FD34FF09E03B3EBE7
:1006480012620DD94FEA002343F0004310F0004F27
:1006580023FA02F018BF404270474FF0000070477D
:1006680012F1610F01D1420205D110F0004008BF1C
:100678006FF0004070474FF00000704753B94AB917
:10068800002908BF00281CBF4FF0FF314FF0FF3092
:1006980000F06CB9ADF1080C6DE904CE00F006F875
:1006A800DDF804E0DDE9022304B070472DE9F047E6
:1006B800089E0D4604468E46002B40F082808A42F2
:1006C800174646D9B2FA82F24AB1C2F1200105FAB8
:1006D80002F320FA01F1974041EA030E94404FEAF1
:1006E8001748230CBEFBF8FCB9B208FB1CEE43EA22
:1006F8000E430CFB01F098420AD9FB180CF1FF35A8
:1007080080F01681984240F21381ACF1020C3B4410
:100718001B1AA4B2B3FBF8F008FB103344EA0344F5
:1007280000FB01F1A14209D93C1900F1FF3380F027
:100738000181A14240F2FE8002383C44641A40EA3A
:100748000C4000211EB1D4400023C6E90043BDE897
:10075800F08702B9FFDEB2FA82F2002A4FD1CB1B32
:100768004FEA174E1FFA87F80121B3FBFEFC250C50
:100778000EFB1C3345EA034508FB0CF3AB4207D9D3
:100788007D190CF1FF3002D2AB4200F2E7808446BB
:10079800ED1AA3B2B5FBFEF00EFB105543EA054473
:1007A80008FB00F8A04507D93C1900F1FF3302D235
:1007B800A04500F2D7801846A4EB080440EA0C4094
:1007C800C0E78B4208D9002E00F0AF800021C6E9AF
:1007D80000050846BDE8F087B3FA83F100294BD13C
:1007E800AB4202D3824200F2B780841A65EB03035E
:1007F80001209E46002EAAD0C6E9004EA7E7C2F106
:10080800200C01FA02F3974020FA0CF04FEA174E39
:1008180021FA0CFC1843BCFBFEF1050C0EFB11CCB5
:100828001FFA87F845EA0C4501FB08F3AB4204FAC6
:1008380002F409D97D1901F1FF3C80F08B80AB42AD
:1008480040F2888002393D44EB1A85B2B3FBFEF0D2
:100858000EFB103345EA034500FB08F3AB4207D90A
:100868007D1900F1FF3C71D2AB426FD902383D448B
:10087800EB1A40EA014178E7C1F1200C8B4022FADB
:100888000CF71F4320FA0CF405FA01F34FEA174E50
:1008980025FA0CF51C43230CB5FBFEF91FFA87F863
:1008A8000EFB195543EA054509FB08FAAA4502FA61
:1008B80001F200FA01F308D97D1909F1FF3047D296
:1008C800AA4545D9A9F102093D44A5EB0A05A4B2F8
:1008D800B5FBFEF00EFB105544EA054400FB08F892
:1008E800A04507D93C1900F1FF352DD2A0452BD9D9
:1008F80002383C4440EA0940A4EB0804A0FB028902
:100908004C45C6464D4619D316D05EB1B3EB0E0220
:1009180064EB050404FA0CFCCA404CEA0202CC4021
:10092800C6E900240021BDE8F087314630460EE7CD
:10093800AC46EDE6184601E74345E6D2B8EB020EB1
:1009480069EB07050138E0E72846D3E760468FE7FB
:100958008146BAE7614677E708464BE7ACF1020CF7
:100968003D4415E702383C4426E700BF704700BF06
:100978002DE9F04F8DB000240794089409940A9447
:100988000B940194704B1A6B42F010021A631A6BA5
:1009980002F010020192019A02941A6B42F00402CA
:1009A8001A631A6B02F004020292029A03941A6BF9
:1009B80042F080021A631A6B02F080020392039AD3
:1009C80004941A6B42F001021A631A6B02F00102D6
:1009D8000492049A05941A6B42F002021A631A6B85
:1009E80002F002020592059A06941A6B42F0080278
:1009F8001A631B6B03F008030693069BDFF8548108
:100A080022460821404602F074FA504F012211464E
:100A1800384602F06EFA22462021384602F069FA7A
:100A2800DFF834A122464FF21001504602F061FA75
:100A3800082607960125089509940A9407A94046AF
:100A480002F06AF90795089509940A9407A93846A7
:100A580002F062F907960226089609940A9405237B
:100A68000B9307A9384602F057F90795384B0893B6
:100A78000994DFF8E8B007A9584602F04DF94FF09D
:100A88002009CDF81C90089509960A9407A93846BC
:100A980002F042F942F20403079308940994A7F577
:100AA800806707A9384602F037F98023079308942E
:100AB800099407A9404602F02FF94FF48063079381
:100AC800089609940A9405220B9207A9384602F061
:100AD80023F94FF210030793089509940A9407A97C
:100AE800504602F019F94FF40073079308940994DB
:100AF80007A9584602F010F94FF480530793089657
:100B080009940A940A230B9307A9584602F004F99A
:100B1800CDF81C900894099407A9504602F0FCF8F7
:100B2800CDF81C9003230893099407A9384602F0CE
:100B3800F3F80796064B0893099407A9404602F074
:100B4800EBF80DB0BDE8F08F003802400008024015
:100B58000000121000100240000C02400000024089
:100B680000B583B000210191094B1A6B42F4800251
:100B78001A631B6B03F480030193019B0A46382018
:100B880001F058FE382001F089FE03B05DF804FB3F
:100B98000038024008B50948094B0360094B436017
:100BA80000238360C3604FF4804202614361836124
:100BB800C361036202F0FAFA08BD00BF38050020DD
:100BC80000540040801A060008B50948094B036024
:100BD800094B436000238360C3604FF48042026185
:100BE80043618361C361036202F0E0FA08BD00BF9C
:100BF8008C050020005C0040801A060008B50948F2
:100C0800094B03604FF40072426000238360C360A5
:100C18000261064A42618361C361036202F02AFDF0
:100C280008BD00BFE0050020003C0040007701003F
:100C380008B50B480B4B03604FF4827343600023E5
:100C48008360C360036143614FF400728261C361D2
:100C58000362436283620A23C36203F01FFC08BD78
:100C6800280600200030014008B50848084B0360FA
:100C78004FF4E133436000238360C36003610C22B7
:100C880042618361C36104F001F808BD00070020D8
:100C98000044004030B593B0002410941194099496
:100CA8000A940B940C940D940E940F9420222146D0
:100CB80001A804F05DF91D4D1D4B2B6040F24F1348
:100CC8006B60AC6040F2F313EB602C616C61AC615B
:100CD800284603F047FD1094119410A9284603F004
:100CE80033FE602309930A940B940C940D940E948C
:100CF8000F94042209A9284603F086FD082209A9B1
:100D0800284603F081FD0194029403940494059409
:100D18004FF400530693089401A9284603F058FE9F
:100D2800284601F0A1F813B030BD00BF80060020AE
:100D38000000014070B584B000250095019502952A
:100D48000395104C104B23604FF480336360A5600B
:100D58002561257684F82050E5620C4BA362E56096
:100D68000126E66184F830506661204601F038FAC1
:100D78000096019602956946204601F007FC04B0EA
:100D880070BD00BF8C040020002001400100000F4E
:100D980030B583B00025009501950B4C0B4B2360B3
:100DA80041F26F736360A56040F2BB23E360A56105
:100DB800204603F0BDFC009501956946204603F0E6
:100DC800C3FD03B030BD00BFC006002000100040C6
:100DD80000B587B000230393059301910122029285
:100DE800049301A901F098FF07B05DF804FB00B572
:100DF80087B0002304930593019102930123039381
:100E080001A901F089FF07B05DF804FBF0B583B0D4
:100E180007460026BE427BDA00F0B8FD01250195A1
:100E28004024009480233B4A0021084600F0AAFC95
:100E380000F088FD00F0AAFD019500948023364A51
:100E48000021084600F09EFC00F07CFD00F09EFDAD
:100E5800019500948023314A0021084600F092FC55
:100E680000F070FD00F092FD0195009480232C4A5B
:100E78000021084600F086FC00F064FD00F086FDC5
:100E8800019500948023274A0021084600F07AFC47
:100E980000F058FD00F07AFD019500948023224A65
:100EA8000021084600F06EFC00F04CFD00F06EFDDD
:100EB8000195009480231D4A0021084600F062FC39
:100EC80000F040FD00F062FD019500948023184A6F
:100ED8000021084600F056FC00F034FD00F056FDF5
:100EE800019500948023134A0021084600F04AFC2B
:100EF80000F028FD00F04AFD0195009480230E4A79
:100F08000021084600F03EFC00F01CFD2E4481E75D
:100F180003B0F0BD705800087060000870640008E5
:100F280070680008706C0008707000087074000821
:100F380070780008707C0008705C000810B588B0F4
:100F4800602301930290002303930593054C082224
:100F580001A9204603F058FC0821204603F0D4FCE0
:100F680008B010BD8006002010B588B0602301933A
:100F78000290002303930593064C04220DEB020113
:100F8800204603F041FC0421204603F0BDFC08B0D4
:100F980010BD00BF8006002010B50C4680B2FFF7D8
:100FA800E3FFA0B2FFF7CAFF10BD0000F8B5044682
:100FB8001E4636491046FFF703F9FFF739FB054689
:100FC80032492046FFF7FCF8FFF732FB002205E024
:100FD8002F49114401320C782E498C543E2AF7DDF2
:100FE8002C4910230B70DFF8B8C08CFB0032C317F4
:100FF800C3EB62123032CA71274C84FB0072C3EB18
:10100800A20384FB0327DA17C2EBA70202EB8202D2
:10101800A3EB420230320A722E274F7203EB83038E
:10102800A0EB430330338B723023CB728CFB053239
:10103800EB17C3EB621230324A7484FB0502C3EB30
:10104800A20384FB0324DA17C2EBA40202EB820298
:10105800A3EB420230328A74CF7403EB8303A5EB0F
:10106800430330330B75089B303381F82330069BDC
:10107800303381F82A30079B303381F8313081F8DA
:101088003E604022054803F030FEF8BD00002041D4
:10109800D8570008400700206766666600070020EA
:1010A8001F85EB512DE9F04190B0054608461C46D6
:1010B8005D49FFF785F8FFF7BBFA06465A49284607
:1010C800FFF77EF8FFF7B4FA074604EB84035B00EA
:1010D800564A0DAD07CA03C5DFF864C18CFB03127D
:1010E800DD17C5EB62153035EDB28DF83C50DFF8F1
:1010F80054E18EFB0423E217C2EBA30202EB820247
:10110800A4EB42023032D4B28DF83B40484B0DF18B
:1011180024080FCBA8E80700A8F8003020238DF892
:101128002D308DF82E508DF82F40424B05AC0FCB4B
:1011380084E80F008CFB0723F817C0EB63133033E8
:101148008DF81F308EFB0723C0EBA3008EFB003207
:10115800C317C3EBA20303EB8303A0EB43033033B2
:101168008DF8203000EB8000A7EB400030308DF880
:101178002200314B01AC0FCB07C423808CFB063C0B
:10118800F017C0EB6C1C0CF1300C8DF80DC08EFB09
:101198000623C0EBA3008EFB003EC317C3EBAE0EC5
:1011A8000EEB8E0EA0EB4E0E0EF1300E8DF80EE00B
:1011B80000EB8000A6EB400030308DF81000169B45
:1011C800012B22D000F0E2FB0A21084600F024FBA4
:1011D8001A4C0122214605A800F072FB14210A20AE
:1011E80000F01AFB0122214601A800F069FB1E212C
:1011F8000A2000F011FB012221460DA800F060FB37
:1012080000F0A0FB10B0BDE8F08100F0BFFB0A21A0
:10121800084600F001FB0122084909A800F050FB2C
:1012280000F090FBEEE700BF0000204118580008CE
:1012380024580008345800084858000800000020C6
:101248001F85EB5167666666074B5A68074B1B6834
:101258000749A1FB03139B0C00FB03F0024B5B68DF
:101268009B1A9842FAD87047001000E00C00002042
:1012780083DE1B4310B50D4C20212046FFF7A8FD47
:1012880000222021204601F034FE44F25060FFF78E
:10129800DBFF01222021204601F02BFE1420FFF75E
:1012A800D3FF20212046FFF7A2FD10BD0000024019
:1012B80010B52820FFF7C8FF20210C4801F012FEC6
:1012C80040B100242021094801F00CFE0028F9D182
:1012D800204610BD5020FFF7B7FF2021034801F03A
:1012E80001FE08B10124EDE7FF24EBE7000002400E
:1012F80038B500252C460DE0C4F1070201239340C0
:101308002B43DDB22021104801F0ECFD0028F9D173
:101318000134E4B2072C15D820210B4801F0E2FD76
:101328000028F9D02820FFF78FFF2021064801F078
:10133800D9FD0028E0D1C4F107020123934025EA32
:101348000305DFE7284638BD0000024038B5FFF73F
:1013580091FFFFF7ADFF134B1870FFF7C9FF124C51
:101368002070FFF7C5FF114B1870FFF7C1FF104D34
:101378002870FFF7BDFF0F4B1870FFF7B9FF0E4B32
:10138800188028780D4B188024780D4B1C80FFF7A7
:1013980081F80C4B18602046FFF77CF80A4B186060
:1013A80038BD00BF780400207C0400207D040020A4
:1013B80082040020830400207E0400208004002092
:1013C8007A0400208404002068040020064A136878
:1013D80043F080731360054B00221A60044A1368B7
:1013E80043F0010313607047FCED00E0041000E0D7
:1013F800001000E070B598B0302200210DEB02001B
:1014080003F0B6FD00240794089409940A940B94F9
:1014180003940494059406940194204B1A6C42F0AA
:1014280080521A641B6C03F080530193019B029451
:101438001B4B1A6842F480421A601B6803F480430D
:101448000293029B01260C964FF480330D930225DC
:1014580012954FF480031393082314934FF4A87341
:1014680015931695072317930CA802F001FC0F2378
:101478000793089509944FF4A0530A934FF48053A7
:101488000B93052107A802F04FFE0396C02304938F
:10149800059503A802F01EFF18B070BD0038024081
:1014A8000070004080B584B000F0C0FDFFF7A2FFD7
:1014B800FFF75EFAFFF754FBFFF76CFBFFF79EFBA5
:1014C800FFF7B6FBFFF7D0FBFFF7E4FBFFF77CFB6A
:1014D800FFF730FCFFF75CFC794C204601F01EF961
:1014E80001227849204600F047FF204600F0A4FE7C
:1014F800754803F0A7F8FFF769FF00F04FFAE0B16D
:101508000A21084600F088F9704C012221467048EB
:1015180000F0D6F91E210A2000F07EF901222146AA
:101528006C4800F0CDF900F00DFA40F2DC5000F004
:10153800A9FD0520FFF76AFC83E0674C01224FF400
:101548004051204601F0D5FC642000F09BFD0022AC
:101558004FF44051204601F0CCFC642000F092FD8D
:1015680001224FF44051204601F0C3FC642000F0F2
:1015780089FD00224FF44051204601F0BAFCBFE734
:10158800564B31221A7068E001222021544801F09C
:10159800B0FC00210846FFF7FFFC524B00221A60FE
:1015A800514B01221A6071E0002220214C4801F0C1
:1015B800A0FC00214FF4FA70FFF7EEFC494B012222
:1015C8001A60494B00221A6068E000210846FFF7BC
:1015D800E3FC00222021424801F08BFC0023414A11
:1015E8001360414A136061E0404B01221A603B4B93
:1015F8001F783F4D2E683F4B1868FEF74BFF01469A
:101608003D4C3E4B1B680293364B1B680193364B8F
:101618001B6800933B4632462068FFF7C7FC40F240
:10162800DC5000F02FFD364B1868FFF701F8034631
:101638002E4A12680092334A126829682068FFF718
:1016480031FDFFF783FE4FF400512F4801F04AFCAB
:10165800012895D0214B30221A701F4C01224FF4DB
:101668007041204601F045FC642000F00BFD00228B
:101678004FF47041204601F03CFC1F4B1968204B89
:101688001868FEF7CBFF00287FF47EAF1A4B196865
:101698001B4B1868FEF7A4FF002885D1164B196864
:1016A800174B1868FEF792FF00288ED18021174843
:1016B80001F018FC002897D00C4B00221A6096E71E
:1016C8008C04002060040020C006002000000020D8
:1016D8005858000864580008000C02406C040020A8
:1016E8000008024080070020340500206404002020
:1016F800680400207004002084040020880400206E
:101708000800002074040020000402400010024079
:101718007047000008B530B900214FF480620348D3
:1017280003F026FC08BDFF21F7E700BF8C07002067
:101738007F2815D83F2913D8104B1B7913B1B2FA5B
:1017480082F25209012A0CD0CB0800EBC31001F039
:10175800070101238B400A4A115C21EA0301115455
:101768007047CB0800EBC31001F0070101238B4041
:10177800034A115C19431154704700BF84070020C5
:101788008C0700202DE9F04F83B0834688469246A7
:101798001E46BDF930300193BDF83430009316F180
:1017A800070904D44FEAE90900273D462CE009F16E
:1017B8000709F7E709FB07F11A46002B12DB42F38A
:1017C800CF020A441AF8025015F0800F0CD10134E8
:1017D80023B2B34212DA9CB213F0070FEAD06D00BD
:1017E800EDB2F1E7DA1DEAE704EB0B009DF8002003
:1017F8001FFA88F180B2FFF79BFFE8E701373FB295
:1018080008F101080FFA88F8019B9F4201DA0023CA
:10181800DFE703B0BDE8F08F014B188059807047AF
:10182800840700202DE9F8439046244B1B880A784A
:1018380013447F2B3EDC81460D46204B5B884A785B
:1018480013443F2B38DC002620E01C4B18885988AD
:1018580031442044B8FA88F2520989B280B2FFF7BD
:1018680067FF01342B78A3420FD907FA04F313F466
:10187800004FEAD0114B1888598831442044424619
:1018880089B280B2FFF754FFEBE701366A78B242BB
:1018980008D96968A9F1200302FB036331F81370C2
:1018A8000024DFE72B78054A11880B44138048464B
:1018B800BDE8F8830020FBE70020F9E78407002053
:1018C80070B504460E461546207848B12A4631467A
:1018D800FFF7A8FF03462078834201D10134F3E7DC
:1018E80070BD000030B5C3B08DF8081000218CB26F
:1018F8009C4205D24C1C555C02A90D55E1B2F6E795
:1019080001330A2200929BB202AA0146024801F062
:101918002BFD43B030BD00BF8C05002000B585B05D
:101928008DF80C108DF80D200A230093022303AACA
:101938000146034801F018FD05B05DF804FB00BF3F
:101948008C05002010B500241AE0A4F15002D2B290
:1019580000217820FFF7E2FF002211467820FFF7E8
:10196800DDFF102200217820FFF7D8FF8023064AE8
:1019780002EBC41240217820FFF7B4FF0134E4B22F
:10198800072CE2D910BD00BF8C07002008B5002045
:10199800FFF7C0FEFFF7D6FF08BD000008B544F604
:1019A800206301227821554801F09AFD002840F073
:1019B800A38040F6C41300E0013B002BFCD1AE220B
:1019C80000217820FFF7AAFF202200217820FFF7C6
:1019D800A5FF102200217820FFF7A0FFB0220021E8
:1019E8007820FFF79BFFC82200217820FFF796FF99
:1019F800002211467820FFF791FF1022002178205D
:101A0800FFF78CFF402200217820FFF787FF812213
:101A180000217820FFF782FFFF2200217820FFF7BE
:101A28007DFFA12200217820FFF778FFA622002160
:101A38007820FFF773FFA82200217820FFF76EFFB8
:101A48003F2200217820FFF769FFA4220021782097
:101A5800FFF764FFD32200217820FFF75FFF002201
:101A680011467820FFF75AFFD52200217820FFF78A
:101A780055FFF02200217820FFF750FFD9220021DE
:101A88007820FFF74BFF222200217820FFF746FF3E
:101A9800DA2200217820FFF741FF12220021782066
:101AA800FFF73CFFDB2200217820FFF737FF2022D9
:101AB80000217820FFF732FF8D2200217820FFF7E0
:101AC8002DFF142200217820FFF728FFAF220021E4
:101AD8007820FFF723FF2E2200217820FFF71EFF32
:101AE8000020FFF717FEFFF72DFF054B00221A8095
:101AF8005A800120587108BD0020FCE78C050020A1
:101B08008407002000B583B0002100910C4B5A6C6B
:101B180042F480425A645A6C02F480420092009A5D
:101B280001911A6C42F080521A641B6C03F08053C6
:101B38000193019B072000F06BFE03B05DF804FBE6
:101B48000038024030B589B000230393049305930D
:101B580006930793026803F1804303F590339A4292
:101B680001D009B030BD04460025019503F58C333A
:101B78005A6C42F480725A645A6C02F48072019270
:101B8800019A02951A6B42F001021A631B6B03F06B
:101B980001030293029B02230393032304930595F5
:101BA80003A9104801F0B8F80F48104B03604560CE
:101BB8008560C5604FF4806303614FF4006343613F
:101BC8004FF4005383614FF48073C361056245622B
:101BD80000F006FF18B9044BA3639C63C1E7FFF745
:101BE80097FDF8E700000240D4040020106402408A
:101BF8002DE9F0438BB000230593069307930893D0
:101C080009930368374A934205D0374A934227D04D
:101C18000BB0BDE8F08300250095344C236B43F0EE
:101C280002032363236B03F002030093009B4FF42A
:101C38001073059312230693012307930895042331
:101C4800099305A92A4801F067F80195236C43F424
:101C580000132364236C03F400130193019BD7E75B
:101C680000250295214C236B43F004032363236B67
:101C780003F004030293029B0395236B43F00103D3
:101C88002363236B03F001030393039B4FF4007357
:101C980005934FF01209CDF818904FF00108CDF8D0
:101CA8001C80032708970426099605A9114801F006
:101CB80033F84FF480730593CDF81890CDF81C8055
:101CC8000897099605A90C4801F026F80495236C95
:101CD80043F400032364236C03F400030493049B7C
:101CE80096E700BF00540040005C00400038024006
:101CF80000040240000802400000024070B588B0AD
:101D080000230393049305930693079302681F4BDC
:101D18009A4201D008B070BD0024009403F5FE3348
:101D28001A6C42F400421A641A6C02F400420092DF
:101D3800009A01941A6B42F001021A631A6B02F0BE
:101D480001020192019A02941A6B42F004021A638A
:101D58001B6B03F004030293029B102303930226D8
:101D68000496059406940625079503A9084800F0EB
:101D7800D3FF4FF4A4530393049605940694079550
:101D880003A9044800F0C8FFC4E700BF003C0040B6
:101D9800000002400008024000B589B00023039308
:101DA80004930593069307930268154B9A4202D051
:101DB80009B05DF804FB0022019203F58433596CE5
:101DC80041F480515964596C01F480510191019991
:101DD8000292196B41F0010119631B6B03F00103B7
:101DE8000293029BE0230393022304930592069235
:101DF8000523079303A9034800F08EFFD8E700BF27
:101E080000300140000002400268094B9A4200D0AD
:101E1800704782B000230193064B5A6C42F00102CE
:101E28005A645B6C03F001030193019B02B0704795
:101E380000000140003802400268094B9A4200D075
:101E4800704782B000230193064B1A6C42F01002CF
:101E58001A641B6C03F010030193019B02B07047D6
:101E6800001000400038024000B587B000230193FD
:101E780002930393049305930268104B9A4202D08D
:101E880007B05DF804FB0021009103F59C331A6B41
:101E980042F010021A631B6B03F010030093009BBF
:101EA8004FF42053019302230293039101230493D7
:101EB800059301A9024800F02FFFE1E70000014067
:101EC8000010024010B588B00023039304930593D3
:101ED800069307930268194B9A4201D008B010BDC7
:101EE8000024019403F5FA331A6C42F400321A64A0
:101EF8001A6C02F400320192019A02941A6B42F0B1
:101F080001021A631B6B03F001030293029B0C236B
:101F1800039302230493059403230693072307934B
:101F280003A9074800F0F8FE22462146262000F0C3
:101F380081FC262000F0B2FCD0E700BF004400403E
:101F4800000002407047FEE7FEE7FEE7FEE7704745
:101F58007047704708B500F083F808BD08B5024817
:101F680002F046FF08BD00BF0007002008B5024880
:101F780000F0E4FD08BD00BFD4040020024B4FF080
:101F880000629A60704700BF00ED00E0DFF834D0CF
:101F9800002103E00C4B5B58435004310B480C4BB9
:101FA80042189A42F6D30B4A02E0002342F8043B57
:101FB800094B9A42F9D3FFF7E1FF02F0B5FFFFF7AB
:101FC80071FA704700000220A88000080000002075
:101FD80044040020440400209C0B0020FEE700007D
:101FE80010B504460E4B18784FF47A73B3FBF0F330
:101FF8000C4A1068B0FBF3F000F05EFC68B90F2CD7
:1020080001D901200AE0002221464FF0FF3000F0FC
:1020180011FC054B1C60002000E0012010BD00BF32
:10202800100000200C0000201400002008B50B4B05
:102038001A6842F400721A601A6842F480621A60E0
:102048001A6842F480721A60032000F0E1FB002055
:10205800FFF7C6FFFFF756FD002008BD003C024011
:10206800034A1168034B1B780B441360704700BF89
:102078008C0B002010000020014B1868704700BF2F
:102088008C0B002038B50446FFF7F6FF0546B4F17F
:10209800FF3F02D0044B1B781C44FFF7EDFF401BA9
:1020A800A042FAD338BD00BF100000204A4B5A683E
:1020B80022F440325A605A6841680A435A600268FA
:1020C800536823F48073536002685368016943EAD4
:1020D800012353600268536823F040735360026819
:1020E800536881680B4353600268936823F4006364
:1020F800936002689368C1680B439360826A374BA8
:102108009A4257D00268936823F07063936002681C
:102118009368816A0B4393600268936823F0405385
:10212800936002689368C16A0B439360026893687E
:1021380023F00203936002689368017E43EA410337
:10214800936090F82030002B3FD00268536843F426
:10215800006353600268536823F460435360016866
:102168004B68426A013A43EA42334B600268D36AD9
:1021780023F47003D3620168CB6AC269013A43EA67
:102188000253CB620268936823F400739360026879
:10219800936890F8301043EA41239360026893688B
:1021A80023F48063936002689368416943EA81235A
:1021B800936070470268936823F0706393600268C5
:1021C800936823F040539360B0E70268536823F4A0
:1021D80000635360CAE700BF002301400100000FFD
:1021E80038B310B50446036C43B1236C13F0100FD9
:1021F8000BD00120002384F83C3010BDFFF7A2FC6F
:102208000023636484F83C30EFE7236C23F488539D
:1022180023F0020343F0020323642046FFF746FF3E
:1022280000206064236C23F0030343F0010323645C
:10223800E0E701207047000082B00023019390F886
:102248003C30012B00F08580012380F83C30036886
:102258009A6812F0010F13D19A6842F001029A604D
:10226800404B1B68404AA2FB03239B0C03EB430330
:10227800019302E0019B013B0193019B002BF9D1E3
:102288000268936813F0010F65D0036C23F4E063D0
:1022980023F0010343F480730364536813F4806FDD
:1022A80005D0036C23F4405343F480530364036C58
:1022B80013F4805F22D0436C23F0060343640023A9
:1022C80080F83C306FF0220313600268536843F0D3
:1022D800806343F020035360244B5B6813F01F0FA7
:1022E80027D10368224A934211D002F580729342A3
:1022F80007D0204A934214D000202DE000234364E5
:10230800DDE702F50072526812F01F0FF1D19A68EA
:1023180012F0405F22D19A6842F080429A60002011
:102328001AE002F58072526812F0100FEFD0002008
:1023380012E003680E4A934201D000200CE09A682C
:1023480012F0405F0CD19A6842F080429A600020F7
:1023580002E0022000E0002002B070470020FBE706
:102368000020F9E70C00002083DE1B430023014016
:10237800002001400022014030B583B013460022FE
:10238800019290F83C20012A00F09A80054601222B
:1023980080F83C200268906810F0010F13D1906813
:1023A80040F0010090604B4A10684B4AA2FB0020A5
:1023B800800C00EB4000019002E0019C013C01947C
:1023C80001980028F9D12A68906810F0010F79D097
:1023D800286C20F4E06020F0010040F4807028644C
:1023E800526812F4806F05D02A6C22F4405242F4ED
:1023F80080522A642A6C12F4805F36D06A6C22F00C
:1024080006026A64002285F83C20AA6B3348D06330
:10241800AA6B33481064AA6B3248D0642A686FF0FC
:10242800220010602868426842F080624260286892
:10243800826842F48072826028680A4600F14C0182
:10244800A86B00F033FB284B5B6813F01F0F27D1F4
:102458002B68264A934211D002F58072934207D026
:10246800234A934214D000202DE000226A64C9E771
:1024780002F50072526812F01F0FF1D19A6812F03B
:10248800405F22D19A6842F080429A6000201AE0A8
:1024980002F58072526812F0100FEFD0002012E09F
:1024A8002B68124A934201D000200CE09A6812F07F
:1024B800405F0CD19A6842F080429A60002002E0A6
:1024C800022000E0002003B030BD0020FBE7002020
:1024D800F9E700BF0C00002083DE1B43232500081A
:1024E800012500080D2500080023014000200140B7
:1024F800002201407047704708B5806BFFF7FBFF6B
:1025080008BD704708B5806B40230364436C43F0F3
:1025180004034364FFF7F5FF08BD08B50346806B65
:10252800026C12F0500F25D1036C43F4007303645E
:1025380003689A6812F0405F19D1027EBAB9DA6A64
:1025480012F4700F03D09A6812F4806F0FD15A6892
:1025580022F020025A60036C23F480730364036C36
:1025680013F4805F03D1036C43F001030364FFF7A6
:10257800C1FF08BD026C12F0100F04D1826BD26C3F
:1025880018469047F5E7FFF7BCFFF2E730B482B092
:102598000023019390F83C30012B00F0B780012311
:1025A80080F83C300B68092B3ED90568EA689BB275
:1025B80003EB43031E3B072404FA03F322EA030355
:1025C800EB600568EA688C680B8803EB43031E3BE5
:1025D80004FA03F31343EB604B68062B3AD80568FB
:1025E8006A6B03EB8303053B1F2404FA03F322EA17
:1025F80003036B6305686A6B4B6803EB8303053B56
:102608000C8804FA03F313436B630268404B9A4245
:1026180050D002683E4B9A4255D0002380F83C3097
:10262800184602B030BC704705682A699BB203EBB4
:102638004303072404FA03F322EA03032B61056822
:102648002A698C680B8803EB430304FA03F31343EA
:102658002B61C1E70C2B16D805682A6B03EB8303A3
:10266800233B1F2404FA03F322EA03032B630568C0
:102678002A6B4B6803EB8303233B0C8804FA03F3B0
:1026880013432B63C1E70568EA6A03EB8303413B05
:102698001F2404FA03F322EA0303EB620568EA6ADB
:1026A8004B6803EB8303413B0C8804FA03F31343A1
:1026B800EB62AAE70B68122BABD1164A536843F4B6
:1026C80080035360A5E70B68103B012BA5D8114A7E
:1026D800536843F4000353600B68102B9DD10E4BD5
:1026E8001B6802F1467202F52E3202F28332A2FB17
:1026F80003239B0C03EB83035B00019302E0019B24
:10270800013B0193019B002BF9D186E7022088E762
:1027180000200140002301400C00002082B000236B
:10272800019390F83C30012B5CD0012380F83C30B9
:1027380003689A6812F0010F13D19A6842F00102F7
:102748009A602F4B1B682F4AA2FB03239B0C03EBB9
:102758004303019302E0019B013B0193019B002B82
:10276800F9D10268936813F0010F3DD0036C23F48C
:10277800405323F0010343F480530364036C13F4C0
:10278800807F01D100234364002380F83C306FF040
:10279800040313601C4B5B6813F01F0F0ED1026813
:1027A8009168536803F4806311F4401F1FD103BB81
:1027B800936843F480039360002016E003689A68E6
:1027C80002F44012596801F480611048834201D034
:1027D80000200AE07AB981B99A6842F480029A60C6
:1027E800002002E0022000E0002002B07047002034
:1027F800FBE70020F9E70020F7E70020F5E700BF36
:102808000C00002083DE1B43002301400020014010
:10281800074AD36823F4E0631B041B0C000200F48E
:10282800E060034343F0BF6343F40033D360704771
:1028380000ED00E030B4174BDB68C3F30223C3F1AB
:102848000704042C28BF04241D1D062D18D9033B9A
:102858004FF0FF3505FA04F421EA0401994005FA1E
:1028680003F322EA0303194300280BDB0901C9B269
:1028780000F1604000F5614080F8001330BC7047FB
:102888000023E5E700F00F000901C9B2024B195413
:10289800F4E700BF00ED00E014ED00E0002807DBDE
:1028A80000F01F02400901239340024A42F82030F9
:1028B800704700BF00E100E00138B0F1807F0AD224
:1028C800064B5860064AF02182F8231000209860D1
:1028D80007221A6070470120704700BF10E000E02F
:1028E80000ED00E030B405682C6824F480242C60E6
:1028F800046863608368402B05D0036899600368A7
:10290800DA6030BC704703689A600368D960F8E7FA
:1029180010B40368D9B210390B4AA2FB014212095C
:102928000A4CA25CC2655F2908D923F47F7323F09F
:10293800030304338365806D10BC704723F47F73F1
:1029480023F003038365F6E7ABAAAAAA88800008E8
:10295800836A826992B9012B0AD0022B02D00BB18B
:1029680000207047C36A13F0807F28D10020704789
:10297800C36AB3F1C07F24D000207047B2F5005F6E
:1029880009D0022B25D9032B25D1C36A13F0807FE8
:1029980023D100207047032B03D8DFE803F0140489
:1029A800140A00207047C36A13F0807F0DD10020FD
:1029B8007047C36AB3F1C07F09D000207047012077
:1029C800704701207047012070470120704701209F
:1029D80070470120704700207047012070470000B1
:1029E80070B50446FFF748FB002C5BD00546002372
:1029F80084F83430022384F835302268136823F0D1
:102A08000103136023681A6812F0010F0AD0FFF758
:102A180033FB431B052BF5D920236365032084F87A
:102A2800350070BD1A68204810406168A2680A43E2
:102A3800E1680A4321690A4361690A43A1690A43B3
:102A4800E1690A43216A0A430243616A04291ED0E4
:102A58001A602668756925F00705636A1D43042B0B
:102A680007D1A36A1D43E36A1BB12046FFF770FF35
:102A780090B975612046FFF74BFFE26D3F23934005
:102A8800836000206065012384F83530C9E7E16A76
:102A9800206B01430A43DBE740236365012084F888
:102AA8003500BEE70120BCE73F8010F038B504468A
:102AB800856D90F8340001282BD0012084F834006B
:102AC80094F83500C0B2012804D0002384F83430CB
:102AD800022038BD022084F83500002060652046B9
:102AE800FFF700FFE26D3F239340AB602268136855
:102AF80043F016031360236C23B12268136843F074
:102B0800080313602268136843F001031360002070
:102B1800DFE70220DDE790F83530DBB2022B03D087
:102B28008023436501207047052380F8353002680B
:102B3800136823F00103136000207047F0B583B0D9
:102B4800044600230193724B1D68724BA3FB0535A5
:102B5800AD0A876D3E68C26D08239340334210D09A
:102B680003681A6812F0040F0BD01A6822F00402E6
:102B78001A60C26D08239340BB60436D43F00103A4
:102B88004365E26D01239340334209D022685269BC
:102B980012F0800F04D0BB60636D43F002036365DD
:102BA800E26D04239340334209D02268126812F080
:102BB800020F04D0BB60636D43F004036365E26DEC
:102BC80010239340334224D02268126812F0080F71
:102BD8001FD0BB6023681A6812F4802F0DD01B68C1
:102BE80013F4002F04D1236C9BB12046984710E0C2
:102BF800A36C73B1204698470BE01A6812F4807FE3
:102C080003D11A6822F008021A60236C0BB120461F
:102C18009847E26D20239340334255D022681268CA
:102C280012F0100F50D0BB6094F83530DBB2052B92
:102C38000ED023681A6812F4802F33D01B6813F45F
:102C4800002F2AD1636C002B3ED0204698473BE0EA
:102C58002268136823F0160313602268536923F06F
:102C680080035361236CA3B12268136823F008031F
:102C78001360E26D3F239340BB60002384F8343037
:102C8800012384F83530236D002B3FD02046984728
:102C98003CE0A36C002BE7D1EBE7E36BA3B1204644
:102CA800984711E01A6812F4807F09D11A6822F057
:102CB80010021A60002384F83430012384F8353078
:102CC800E36B0BB120469847636DFBB1636D13F05E
:102CD800010F17D0052384F835302268136823F0D4
:102CE80001031360019B01330193AB4204D82368AD
:102CF8001B6813F0010FF5D1002384F83430012349
:102D080084F83530E36C0BB12046984703B0F0BD2A
:102D18000C000020B5814E1B00230F2B00F2D98038
:102D2800F0B583B039E0072200E00022B2403A4310
:102D38000234684E46F82420674A1468EA4324EAB5
:102D480005064F6817F4803F01D045EA0406624C37
:102D58002660646802EA04064F6817F4003F01D051
:102D680045EA04065C4C6660A46802EA04064F68FB
:102D780017F4801F01D045EA0406574CA660E468A2
:102D880022404E6816F4001F01D045EA0402524C56
:102D9800E26001330F2B00F29A8001229A400C68FE
:102DA80004EA020532EA0404F3D14C68661E012ED7
:102DB80003D9112C01D0122C12D186685F0003248C
:102DC800BC4026EA0406CC68BC40344384604668AC
:102DD80026EA02064C68C4F300129A403243426065
:102DE800C7685E000324B440E24327EA04078C68FE
:102DF800B4403C43C4604C68022C01D0122C13D15F
:102E0800DF08083750F827E003F007044FEA840C7E
:102E18000F2404FA0CF42EEA040E0C6904FA0CF4DC
:102E280044EA0E0440F82740046814404A6802F057
:102E38000302B240224302604A6812F0805FA8D0C1
:102E480000220192254A546C44F480445464526C24
:102E580002F480420192019A9C08A61C1D4A52F86D
:102E6800267003F0030296000F22B24027EA0207F9
:102E78001B4A90423FF459AF02F5806290421AD043
:102E880002F58062904218D002F58062904216D016
:102E980002F58062904214D002F58062904212D00E
:102EA80002F58062904210D002F5806290423FF4B1
:102EB8003AAF08223AE7012238E7022236E703222E
:102EC80034E7042232E7052230E706222EE703B072
:102ED800F0BD704700380140003C01400038024016
:102EE800000002400369194201D001207047002008
:102EF80070470AB1816170470904816170470368AE
:102F08005A6912F4806F01D1002070476FF4806213
:102F18005A6100230363202280F83D2080F83E3068
:102F2800026C42F00402026480F83C3001207047D1
:102F38002DE9F04107460D4690461E4622E0FFF770
:102F48009BF8069BC01AB04200D8DEB900233B6349
:102F5800202287F83D2087F83E303A6C42F0200264
:102F68003A6487F83C3001201AE03B689C6925EAFE
:102F78000404A4B2B4FA84F46409A0450FD1B6F1EC
:102F8800FF3FDCD1C5F30743012BEED13B685C69F9
:102F980025EA0404A4B2B4FA84F46409EDE7002035
:102FA800BDE8F0812DE9F04105460E4617469846E2
:102FB8003DE01A6842F400721A602B686FF4806270
:102FC8005A6100232B63202285F83D2085F83E3086
:102FD8002A6C42F004022A6485F83C30012034E06F
:102FE800FFF74AF8A0EB0800B84200D8FFB9002361
:102FF8002B63202285F83D2085F83E302A6C42F06C
:1030080020022A6485F83C3001201EE02B689C6968
:1030180026EA0404A4B2003C18BF0124A4B12B681A
:103028005A6912F4806FC4D1B7F1FF3FD8D1C6F303
:103038000743012BEAD12B685C6926EA0404A4B291
:10304800003C18BF0124E9E70020BDE8F08100003A
:10305800F0B583B004460D4616461F46C36A082BD2
:103068000DD0012B0BD013F5803F08D0036B122B2A
:103078000AD10268136843F48073136004E022687D
:10308800136843F4807313600097334600224FF0AF
:1030980001112046FFF74CFF80B92369B3F5804F33
:1030A80016D1236805F0FE051D613B4632461349DB
:1030B8002046FFF777FFF8B903B0F0BD23681B6817
:1030C80013F4807F02D04FF4007323640320F3E7E6
:1030D800EB11226803F0060343F0F00313613B464B
:1030E800324607492046FFF75DFF18B92368EDB25D
:1030F8001D61DAE70120DFE70120DDE702000100BA
:103108000800010070B504460D46164623685B6941
:1031180013F0800F1CD12046FFF7F1FED0B9B5F1AE
:10312800FF3FF3D0FEF7A8FF801BA84201D8002D6F
:10313800ECD100232363202284F83D2084F83E301C
:10314800226C42F02002226484F83C30012000E026
:10315800002070BD0120FCE770B504460D461646F8
:1031680023685B6913F0040F1CD12046FFF7C7FEE4
:10317800D0B9B5F1FF3FF3D0FEF77EFF801BA84220
:1031880001D8002DECD100232363202284F83D20B0
:1031980084F83E30226C42F02002226484F83C30ED
:1031A800012000E0002070BD0120FCE7002800F0AD
:1031B800CC80F8B5044690F83D30002B77D0242316
:1031C80084F83D302268136823F0010313602268F5
:1031D800136843F4004313602268136823F4004320
:1031E800136001F057F862685A4B9A4264D85A4BF8
:1031F80098428CBF00230123002B40F0A880574D34
:10320800A5FB0035AF0C2668716821F03F0141EA43
:103218009541716021680B6A23F03F0365684D4A48
:1032280095424FD87A1C13430B622568E96921F44B
:103238004F4121F0FF016368464A93424CD8013858
:103248005B00B0FBF3F0013040F6FC73184278D015
:10325800C0F30B030B43EB6121680B6823F0C00339
:10326800E269206A024313430B6021688B6823F4E8
:10327800034323F0FF032269E068024313438B6092
:103288002168CB6823F0FF036269A06902431343F6
:10329800CB602268136843F00103136000202064A8
:1032A800202384F83D30206384F83E00F8BD80F880
:1032B8003C30FEF79DFC82E7294B98428CBF0023E7
:1032C800012399E74FF4967202FB07F2254DA5FBFF
:1032D800025292090132A6E7A268BAB9461E03EB68
:1032E8004307B6FBF7F60136C6F30B06B6FA86F6C1
:1032F800760946BBC2B9421E03EB4303B2FBF3F2A5
:103308000132C2F30B0242F40043A3E7461E03EB6B
:10331800830707EB8707B6FBF7F60136C6F30B06FC
:10332800B6FA86F67609E4E7421E03EB830303EB5D
:103338008303B2FBF3F20132C2F30B0242F44043BF
:1033480088E7042386E7012384E7012070470120EA
:10335800ACE700BFA08601007F841E0083DE1B430C
:10336800FF083D00D34D62102DE9F04385B00446B7
:103378000F46914698460C9EFEF77EFE054694F849
:103388003D00C0B2202804D00227384605B0BDE869
:10339800F0830095192301224F492046FFF7C8FD05
:1033A800002840F0928094F83C30012B00F08F8088
:1033B800012384F83C3023681A6812F0010F03D106
:1033C8001A6842F001021A602268136823F4006345
:1033D8001360212384F83D30102384F83E30002305
:1033E8002364C4F82490A4F82A80638D23853B4B7A
:1033F800E3622B46324639462046FFF729FE074648
:10340800002866D10023039323685A6903929B69B5
:103418000393039B11E0236C042B01D00127B4E72D
:103428002268136843F400731360F7E72A463146AD
:103438002046FFF791FE00282ED1238D002B36D091
:103448002A4631462046FFF75DFE0028E3D1626A2E
:10345800236812781A61616A4B1C6362638D9BB2A0
:10346800013B9BB26385238D013B9BB22385226878
:10347800506910F0040FD9D0002BD7D04B781361C6
:10348800636A01336362638D9BB2013B9BB26385C0
:10349800238D013B2385C9E7236C042B01D0012729
:1034A80073E72268136843F400731360F7E7226830
:1034B800136843F400731360202384F83D3000231D
:1034C80084F83E3084F83C305FE702275DE7022746
:1034D8005BE7012759E700BF020010000000FFFF6B
:1034E8002DE9F04784B00546894692461E46FEF708
:1034F800C3FD95F83D30DBB2202B03D0022004B089
:10350800BDE8F0870746009019230122584928464C
:10351800FFF70EFD002840F0A28095F83C30012B03
:1035280000F09F80012385F83C302B681A6812F060
:10353800010F03D11A6842F001021A602A68136861
:1035480023F400631360242385F83D3000232B64A3
:10355800A3F58033EB624FF001083FE02B681B684E
:1035680013F4807F02D04FF400732B640320C6E766
:10357800A02385F83D302A685369C3F34003526994
:10358800C2F3802295F83D40E4B2A02C09D043B99B
:103598003AB9FEF771FDC01BB042E9D8002EEAD156
:1035A800E6E7202385F83D302B685A6912F0020FB0
:1035B80032D11A6842F400721A602B686FF4806284
:1035C8005A6100971923012229492846FFF7B0FCC0
:1035D80000284AD108F10108D04538D22A68136872
:1035E80043F4807313600097334600224FF00111B3
:1035F8002846FFF79DFC0028B0D12B6809F0FE0291
:103608001A61FEF739FD07462A685369C3F3400378
:103618005269C2F38022B5E71A6842F400721A6050
:10362800002303932B685A6903929B690393039BB6
:103638000097192301220E492846FFF779FC90B913
:10364800202385F83D30002385F83C3057E72023B8
:1036580085F83D30002385F83C3001204FE70220F3
:103668004DE702204BE7012049E7012047E700BF6B
:1036780002001000002800F0BF8070B5044690F8E2
:103688004130002B51D0022284F841202168CB69B7
:1036980023F47B6323F00F03CB6123681A62636909
:1036A800934263D0E368002B46D11025A368202BF2
:1036B80000D86D00012000F0B7FE2369B3F5007F44
:1036C8003CD0B0FBF5F000EB800043006069B3FB31
:1036D800F0F30533494AA2FB0323C3F3C002C2EB4C
:1036E800D3035B0811029A1EFD2A41D822690A43B6
:1036F800216813430B622168CB6923F47B6323F0B1
:103708000F036268A0680243E0680243A0690243AD
:10371800134343F40063CB61236A012B2ED00020AE
:103728006064012384F8413070BD80F84030344B28
:103738004363FEF7E3FAA6E72025B7E7E36853B14A
:10374800AD00B0FBF5F000EB800043006069B3FB0F
:10375800F0F30533BEE7ED00B0FBF5F000EB8000B9
:1037680043006069B3FBF0F30533B3E70021BAE720
:10377800636C43F0100363640120D5E7214B636356
:103788002268214B9A421FD04FF04022D36923F47C
:103798007B6323F00F03D36122681B4B9A4215D039
:1037A8004FF0402302221A622268174B9A4210D027
:1037B8004FF04021CA6992B26368B3F5007F0AD01E
:1037C800C3B94FF4807608E0104ADFE7A3F58063B9
:1037D800E8E70E49EEE74FF48076A068E568238BAA
:1037E8002B439BB203439BB23343134343F400631D
:1037F800CB6194E70026F0E701207047CDCCCCCC14
:103808008F380008A13A0008003800400034004012
:10381800704708B5426A03681288DA60436A02335F
:103828004362438D9BB2013B9BB24385438D9BB260
:1038380003B108BD0268536823F0A0035360012355
:1038480080F84130FFF7E4FFF3E7704708B50368F5
:10385800DA68C36A1A80C36A0233C362438E9BB2B2
:10386800013B9BB24386438E9BB203B108BD0268FD
:10387800536823F060035360012380F84130FFF759
:10388800E4FFF3E7704710B584B004460268936814
:10389800039390F84130DBB2042B06D094F8413002
:1038A800DBB2032B2CD004B010BD039B13F0010F27
:1038B80003D0536813F0400F1FD1039B13F0400F40
:1038C800ECD023685A6812F0200FE7D05A6822F02B
:1038D80060025A60002301932368DA6801929B68AA
:1038E8000193019B012384F84130636C43F0020388
:1038F80063642046FFF7C6FFD0E7FFF7A7FFDCE7C2
:10390800039B13F0020F04D023685B6813F0800F49
:103918001DD1039B13F0080FC5D023685A6812F015
:10392800200FC0D05A6822F0A0025A6000230293E8
:1039380023689B680293029B012384F84130636CDF
:1039480043F0040363642046FFF79CFFABE720467F
:10395800FFF75FFFDDE7704708B5436A9A1C4262CC
:1039680002681B88D360438D9BB2013B9BB24385A1
:10397800438D9BB23BB90268536823F0A0035360A0
:10398800438E9BB203B108BD012380F84130FFF795
:10399800E2FFF8E708B50268154B9A421CD04FF0D1
:1039A8004023DA68C36A991CC1621A80438E9BB2AD
:1039B800013B9BB24386438E9BB263B902680C4BB2
:1039C8009A420CD04FF04022536823F060035360B2
:1039D800438D9BB22BB108BDA3F58063E1E7054A8F
:1039E800F2E7012380F84130FFF7B5FFF3E700BFA6
:1039F800003800400034004008B5436A9A1C42620F
:103A08001A880168134B994218D04FF04023DA60A6
:103A1800438D9BB2013B9BB24385438D9BB263B9F7
:103A280002680C4B9A420CD04FF04022536823F0A6
:103A3800A0035360438E9BB22BB108BDA3F58063EE
:103A4800E5E7054AF2E7012380F84130FFF783FFF5
:103A5800F3E700BF003800400034004008B50368B1
:103A6800DA68C36A991CC1621A80438E9BB2013B13
:103A78009BB24386438E9BB23BB90268536823F0DE
:103A880060035360438D9BB203B108BD012380F8E6
:103A98004130FFF760FFF8E710B586B004460368C9
:103AA8009A680592704A93426FD04FF0402291680D
:103AB80004915B680393536802936368B3F5007FCE
:103AC80001D0002B70D1059B13F0020F03D0039B8C
:103AD80013F0800F5CD1049B13F0010F03D0029BFD
:103AE80013F0400F58D1049B13F0400F24D0029BD1
:103AF80013F0200F20D022685B4B9A4250D04FF031
:103B08004022536823F0600353602268536823F00F
:103B1800A0035360002300932368DA6800929B682F
:103B28000093009B012384F84130636C43F0020347
:103B380063642046FFF7A6FE059B13F0080F22D00A
:103B4800039B13F0200F1ED02268536823F0A003B4
:103B580053602268444B9A4224D04FF04022536865
:103B680023F0600353600023019323689B6801934B
:103B7800019B012384F84130636C43F004036364C0
:103B88002046FFF77FFE06B010BDA2F580628EE7E3
:103B98002046FFF7E1FE9EE72046FFF7FBFEA2E77F
:103BA800324AAEE7314ADAE7049B13F0020F03D03A
:103BB800029B13F0800F4AD1059B13F0010F03D02D
:103BC800039B13F0400F46D1059B13F0400F1CD008
:103BD800039B13F0200F18D02268536823F060036A
:103BE80053602268204B9A4239D04FF040225368E4
:103BF80023F0A0035360012384F84130636C43F041
:103C0800020363642046FFF73DFE049B13F0080F90
:103C1800B9D0029B13F0200FB5D02268124B9A42FC
:103C28001FD04FF04022536823F0A003536022684E
:103C3800536823F060035360012384F84130636CB8
:103C480043F0040363642046FFF71CFE9BE720460D
:103C5800FFF7D2FEB0E72046FFF700FFB4E7034ABC
:103C6800C5E7024ADFE700BF0038004000340040E3
:103C7800002800F0D98170B582B00446036813F0BB
:103C8800010F3BD0A64B9B6803F00C03042B2CD0F0
:103C9800A34B9B6803F00C03082B21D06368B3F592
:103CA800803F4FD0B3F5A02F52D09D4B1A6822F415
:103CB80080321A601A6822F480221A606368002B26
:103CC80050D0FEF7D9F90546954B1B6813F4003F11
:103CD80014D1FEF7D1F9401B6428F5D90320AAE1D5
:103CE8008F4B5B6813F4800FD8D08D4B1B6813F48F
:103CF800003F03D06368002B00F09881236813F01D
:103D0800020F54D0864B9B6813F00C0F3ED0844BA7
:103D18009B6803F00C03082B33D0E368002B67D0B3
:103D2800804B01221A60FEF7A7F905467C4B1B68F9
:103D380013F0020F53D1FEF79FF9401B0228F5D963
:103D4800032078E1764A136843F480331360B5E7BB
:103D5800734B1A6842F480221A601A6842F480325F
:103D68001A60ABE7FEF788F905466D4B1B6813F43C
:103D7800003FC3D0FEF780F9401B6428F5D9032023
:103D880059E1674B5B6813F4800FC6D1644B1B681D
:103D980013F0020F03D0E368012B40F04981604A19
:103DA800136823F0F803216943EAC1031360236809
:103DB80013F0080F40D0636963B35B4B01221A60AC
:103DC800FEF75AF90546564B5B6F13F0020F33D1D5
:103DD800FEF752F9401B0228F5D903202BE1504A7F
:103DE800136823F0F803216943EAC1031360DEE78F
:103DF8004C4B00221A60FEF73FF90546484B1B68FA
:103E080013F0020FD3D0FEF737F9401B0228F5D97B
:103E1800032010E1444B00221A60FEF72DF90546F5
:103E28003F4B5B6F13F0020F06D0FEF725F9401BDE
:103E38000228F5D90320FEE0236813F0040F78D098
:103E4800374B1B6C13F0805F0DD100230193344B6B
:103E58001A6C42F080521A641B6C03F08053019371
:103E6800019B012500E00025304B1B6813F4807F7F
:103E780021D0A368012B32D0052B36D0284B1A6FDE
:103E880022F001021A671A6F22F004021A67A36867
:103E9800002B34D0FEF7F0F80646214B1B6F13F0C9
:103EA800020F45D1FEF7E8F8801B41F288339842AB
:103EB800F3D90320BFE01D4A136843F480731360ED
:103EC800FEF7DAF80646194B1B6813F4807FD0D149
:103ED800FEF7D2F8801B0228F5D90320ABE0104A80
:103EE800136F43F001031367D1E70D4B1A6F42F0CC
:103EF80004021A671A6F42F001021A67C7E7FEF751
:103F0800BBF80646064B1B6F13F0020F10D0FEF7E6
:103F1800B3F8801B41F288339842F3D903208AE032
:103F28000038024000004742800E474200700040BF
:103F3800E5B9A369002B7DD0464A926802F00C02CD
:103F4800082A51D0022B17D0434B00221A60FEF7E3
:103F580093F804463F4B1B6813F0007F42D0FEF7EE
:103F68008BF8001B0228F5D9032064E0394A136C4A
:103F780023F080531364DCE7374B00221A60FEF706
:103F88007BF80546334B1B6813F0007F06D0FEF71D
:103F980073F8401B0228F5D903204CE0E369226A34
:103FA8001343626A43EA8213A26A5208013A43EA57
:103FB8000243E26A43EA0263264A5360264B01221F
:103FC8001A60FEF759F80446224B1B6813F0007F6D
:103FD80006D1FEF751F8001B0228F5D903202AE084
:103FE800002028E0002026E0012B26D0194B5B6832
:103FF80003F48001E269914221D103F03F02216A72
:104008008A421ED1616A47F6C0721A408A421AD1A2
:1040180003F44032A16A8A4217D103F07063E26A5E
:10402800934214D1002006E001207047012002E0ED
:10403800012000E0002002B070BD0120FBE7012054
:10404800F9E70120F7E70120F5E70120F3E7012070
:10405800F1E700BF0038024060004742F8B52F4B37
:104068009B6803F00C03042B53D0082B53D12B4B24
:104078005A6802F03F025B6813F4800F28D0274B80
:104088005B68C3F3881358010021C01A61F100016D
:104098008E0146EA906687013C1A66EB0105E90045
:1040A80041EA5471E000C01841F100014B0243EAB3
:1040B800D0534402204619460023FCF7DFFA174B79
:1040C8005B68C3F3014301335B00B0FBF3F023E00B
:1040D800124B5B68C3F388135C010025E41A65F191
:1040E8000005AE0146EA9466A701381B66EB050198
:1040F800CC0044EA5074C500E81844F100018B0272
:1041080043EA90538402204619460023FCF7B6FA86
:10411800D5E7034800E00348F8BD00BF0038024077
:1041280000127A000024F400002800F09B8070B58B
:104138000D4604464F4B1B6803F00F038B4208D211
:10414800CBB24C4A1370136803F00F038B4240F054
:104158008B80236813F0020F17D013F0040F04D0DC
:10416800454A936843F4E0539360236813F0080FBB
:1041780004D0414A936843F4604393603E4A93688D
:1041880023F0F003A1680B439360236813F0010F39
:1041980032D06368012B21D09A1E012A25D9364ACC
:1041A800126812F0020F61D033498A6822F00302C4
:1041B80013438B60FDF760FF06462F4B9B6803F0A7
:1041C8000C036268B3EB820F16D0FDF755FF801B16
:1041D80041F288339842F0D9032042E0264A126817
:1041E80012F4003FE0D101203BE0234A126812F0AC
:1041F800007FD9D1012034E01E4B1B6803F00F0368
:10420800AB4207D9EAB21B4B1A701B6803F00F03C5
:10421800AB422DD1236813F0040F06D0164A9368D9
:1042280023F4E053E1680B439360236813F0080F0D
:1042380007D0114A936823F46043216943EAC10314
:104248009360FFF70BFF0C4B9B68C3F303130B4AF8
:10425800D35CD8400A4B18600A4B1868FDF7C0FEBB
:10426800002070BD012070470120FAE70120F8E71F
:104278000120F6E7003C0240003802407080000848
:104288000C00002014000020014B1868704700BF84
:104298000C00002008B5FFF7F7FF044B9B68C3F339
:1042A8008223034AD35CD84008BD00BF00380240CF
:1042B8008080000808B5FFF7E7FF044B9B68C3F34D
:1042C8004233034AD35CD84008BD00BF00380240DF
:1042D8008080000830B583B00446036813F0050FEA
:1042E80006D1236813F0020F2ED1002003B030BD91
:1042F800494B00221A60FDF7BFFE0546474B1B6875
:1043080013F0006F06D0FDF7B7FE431B022BF5D95B
:104318000320EBE76268A3681B0743EA82133F4A5E
:10432800C2F884303C4B01221A60FDF7A5FE054611
:104338003A4B1B6813F0006FD3D1FDF79DFE431B6A
:10434800022BF5D90320D1E700230193334B1A6CD4
:1043580042F080521A641B6C03F080530193019B56
:104368002F4A136843F480731360FDF785FE0546F2
:104378002B4B1B6813F4807F06D1FDF77DFE431B92
:10438800022BF5D90320B1E7244B1B6F13F44073BC
:1043980012D0E26802F440729A420DD01F4B1A6F95
:1043A80022F440721F4901200860002008601A6743
:1043B8001B6F13F0010F13D1E36803F44072B2F5D9
:1043C800407F1ED0154A936823F4F813936013496D
:1043D8000B6FE268C2F30B0213430B67002085E7FB
:1043E800FDF74AFE05460D4B1B6F13F0020FE3D194
:1043F800FDF742FE401B41F288339842F3D903206F
:1044080074E706498A6822F4F81223F0704323F40B
:10441800407313438B60DAE7680047420038024074
:1044280000700040400E4742012801D0002070472C
:10443800164B9B6813F4000303D0012B23D11448B7
:104448007047124B5B6813F4800F14D00F4B5B68F6
:1044580003F03F030F48B0FBF3F00C4AD2F8843066
:10446800C3F3881300FB03F0D2F88430C3F302735C
:10447800B0FBF3F07047054B5B6803F03F03064859
:10448800B0FBF3F0E9E70020704700BF00380240B6
:104498000080BB0000127A000024F40000283BD002
:1044A80010B504460023836290F85130002B2ED0BB
:1044B800022384F851302268136823F04003136004
:1044C8006368A2681343E26813432269134362696D
:1044D8001343A26902F400721343E2691343226A88
:1044E8001343A16A22680B431360638B03F0040330
:1044F800616A22680B4353602268D36923F400631E
:10450800D36100206065012384F8513010BD80F824
:104518005030FDF741FCCBE70120704730B4036A07
:1045280023F001030362056A4268846924F0730476
:104538000B681C4325F002058B682B43104DA842DD
:1045480003D005F58065A84205D123F00803CD689E
:104558002B4323F004030A4DA84203D005F58065D8
:10456800A84205D122F440724D6915438A692A434D
:10457800426084614A684263036230BC704700BF8E
:104588000000014030B4036A23F480730362036AB5
:104598004268C46924F073040D682C4323F4007343
:1045A8008D6843EA0523124DA84203D005F58065BE
:1045B800A84206D123F40063CD6843EA052323F417
:1045C80080630B4DA84203D005F58065A84207D14A
:1045D80022F440524D6942EA05128D6942EA0512F9
:1045E8004260C4614A68C263036230BC704700BF5E
:1045F8000000014030B4036A23F480530362036A65
:104608004468C26922F4E6420D6842EA052223F4AE
:1046180000538D6843EA0533094DA84203D005F5D8
:104628008065A84204D124F480444D6944EA851485
:104638004460C2614A680264036230BC704700BFCC
:10464800000001400268D36843F00103D3600268A8
:10465800936803F00703062B03D0136843F00103A4
:1046680013600020704700000368304A904212D05F
:10467800B0F1804F0FD0A2F57C4290420BD002F5EA
:104688008062904207D002F58062904203D002F522
:104698007842904203D123F070034A681343234AB7
:1046A80090422AD0B0F1804F27D0A2F57C429042A8
:1046B80023D002F5806290421FD002F580629042BA
:1046C8001BD002F57842904217D002F57052904202
:1046D80013D002F5806290420FD002F580629042BA
:1046E8000BD0A2F59832904207D002F58062904232
:1046F80003D002F58062904203D123F44073CA6864
:10470800134323F080034A69134303608B68C36231
:104718000B688362054B984203D003F58063984287
:1047280001D10B6903630123436170470000014015
:10473800B0B110B5044690F83D3063B1022384F857
:104748003D30214651F8040BFFF78EFF012384F812
:104758003D30002010BD80F83C30FDF76DFBEDE7E3
:1047680001207047B0B110B5044690F83D3063B1F0
:10477800022384F83D30214651F8040BFFF774FFFB
:10478800012384F83D30002010BD80F83C30FDF74F
:104798003BFBEDE70120704730B4036A23F01003B8
:1047A8000362036A4468826922F4E6420D6842EAB9
:1047B800052223F020038D6843EA0513114DA84212
:1047C80003D005F58065A84206D123F08003CD68A3
:1047D80043EA051323F040030A4DA84203D005F528
:1047E8008065A84207D124F440644D6944EA8504F1
:1047F8008D6944EA8504446082614A688263036281
:1048080030BC70470000014038B590F83C30012BAF
:1048180066D004460D46012380F83C30022380F818
:104828003D300C2A1AD8DFE802F0071919192019A7
:1048380019193419191947000068FFF76FFE226823
:10484800936943F0080393612268936923F0040392
:1048580093612268936929690B439361012384F862
:104868003D30002084F83C0038BD0068FFF794FF15
:104878002268936943F4006393612268936923F47F
:104888008063936122689369296943EA01239361EC
:10489800E4E70068FFF776FE2268D36943F008036F
:1048A800D3612268D36923F00403D3612268D369F2
:1048B80029690B43D361D1E70068FFF79BFE2268A3
:1048C800D36943F40063D3612268D36923F4806316
:1048D800D3612268D369296943EA0123D361BDE71B
:1048E8000220C1E710B401F01F01012303FA01F40B
:1048F800036A23EA04030362036A02FA01F10B4321
:10490800036210BC7047000010B50446012200681D
:10491800FFF7E8FF23680B4A934203D002F5806251
:10492800934203D15A6C42F400425A642268936855
:1049380003F00703062B03D0136843F00103136049
:10494800002010BD0000014090F83C30012B3BD006
:1049580030B4012380F83C30022380F83D300368EE
:104968005C689D6824F070040A6822435A600368F2
:10497800164A93421AD0B3F1804F17D0A2F57C4261
:10498800934213D002F5806293420FD002F5806201
:1049980093420BD002F57842934207D002F5705249
:1049A800934203D0A2F59432934204D125F08005B6
:1049B8004A6815439D60012380F83D30002380F844
:1049C8003C30184630BC7047022070470000014058
:1049D80090F83C30012B22D0012380F83C30CB6882
:1049E80023F440738A68134323F480634A681343AB
:1049F80023F400630A68134323F480530A691343BA
:104A080023F400534A69134323F48043CA691343C8
:104A180002685364002380F83C301846704702202F
:104A280070470268D36823F49073D36002685369AF
:104A380023F001035361202380F83A30704790F83F
:104A48003930DBB2212B01D0022070478368B3F5DF
:104A5800805F17D0036A5A1C02621A7803685A608A
:104A6800C38C9BB2013B9BB2C3844BB90268D36829
:104A780023F08003D3600268D36843F04003D36017
:104A880000207047036A1B880268C3F30803536059
:104A980003691BB9036A02330362E1E7036A01335E
:104AA8000362DDE770B504460268136923F44053D6
:104AB800C1680B4313618368026913434269134356
:104AC800C2691A430168CB6823F4164323F00C0328
:104AD8001343CB600268536923F4407381690B4325
:104AE8005361C369B3F5004F36D00368654A9342F2
:104AF80000F09A8002F58062934200F09580FFF7FB
:104B0800C9FB0026051846EB06012D1846EB0101E6
:104B1800CB0043EA5573EA001546194663689A00C4
:104B28009B0F281846EB0101FBF7A8FD564DA5FB86
:104B380000325109642303FB11031B013233A5FB27
:104B480003235B0903F0F00202EB011203F00F03E9
:104B5800216813448B6093E003684A4A934233D038
:104B680002F5806293422FD0FFF794FB00260518C8
:104B780046EB06012D1846EB0101CB0043EA5573BD
:104B8800EA001546194662683346921846EB030355
:104B9800281846EB0101FBF771FD3B4DA5FB0032E0
:104BA8005109642303FB1103DB003233A5FB032304
:104BB8005B095A0002F4F87202EB011203F00703D2
:104BC800216813448B605BE0FFF774FB002605182F
:104BD80046EB06012D1846EB0101CB0043EA55735D
:104BE800EA001546194662683346921846EB0303F5
:104BF800281846EB0101FBF741FD234DA5FB0032C8
:104C08005109642303FB1103DB003233A5FB0323A3
:104C18005B095A0002F4F87202EB011203F0070371
:104C2800216813448B602BE0FFF744FB002605182E
:104C380046EB06012D1846EB0101CB0043EA5573FC
:104C4800EA001546194663689A009B0F281846EB38
:104C58000101FBF713FD0C4DA5FB0032510964233C
:104C680003FB11031B013233A5FB03235B0903F08C
:104C7800F00202EB011203F00F03216813448B606A
:104C880070BD00BF001001401F85EB5158B310B52F
:104C9800044690F839300BB3242384F8393022685D
:104CA800D36823F40053D3602046FFF7FBFE226845
:104CB800136923F4904313612268536923F02A038C
:104CC80053612268D36843F40053D3600020E06343
:104CD800202384F8393084F83A3010BD80F8383011
:104CE800FDF7F0F8D8E70120704790F83930DBB2CB
:104CF800202B16D1B9B1C2B190F83830012B16D09B
:104D080001628284C2840023C363212280F839208F
:104D180080F838300168CA6842F08002CA601846D4
:104D28007047022070470120704701207047022019
:104D38007047704708B50168CA6822F04002CA6027
:104D4800202280F83920FFF7F4FF002008BD7047C3
:104D580008B590F83A30DBB2222B46D18368B3F518
:104D6800805F0FD003690BBB03685A68836A591CBC
:104D780081621A70C38D9BB2013B9BB2C385F3B1AC
:104D8800002008BD826A036943B903685B68C3F3FE
:104D980008031380836A02338362EBE703685B6866
:104DA800DBB21380836A01338362E3E703685B68DD
:104DB800826A511C816203F07F031370DAE702688C
:104DC800D36823F02003D3600268D36823F4807388
:104DD800D3600268536923F001035361202380F8EC
:104DE8003A30FFF7B4FF0020CBE70220C9E770474D
:104DF80010B5044602681368D168526913F00F00B1
:104E080005D113F0200F02D011F0200F13D128B1D3
:104E180012F0010213D111F4907F10D113F0800F1A
:104E280002D011F0800F6CD113F0400F02D011F0B6
:104E3800400F6AD110BD2046FFF78AFFFAE713F04A
:104E4800010F06D011F4807F03D0E06B40F0010021
:104E5800E06313F0040F04D01AB1E06B40F00200D5
:104E6800E06313F0020F04D01AB1E06B40F00400C5
:104E7800E06313F0080F07D011F0200F00D11AB12A
:104E8800E26B42F00802E263E26B002AD2D013F030
:104E9800200F02D011F0200F21D123685B6903F0A5
:104EA8004003E26B12F0080F00D123B32046FFF74E
:104EB800B8FD23685A6912F0400F18D05A6922F0D9
:104EC80040025A61636B73B1124A1A65606BFDF751
:104ED80022FE0028AED0606B036D9847AAE72046F3
:104EE800FFF736FFD9E72046FFF781FFA2E7204604
:104EF800FFF77DFF9EE72046FFF779FF0023E36376
:104F080098E72046FFF79BFD94E72046FFF712FF3E
:104F180090E700BF214F000808B5806B0023C385C8
:104F2800C384FFF764FF08BD70B50D4D0D4C641BBD
:104F3800A4100026A64209D10B4D0C4C00F086F8AF
:104F4800641BA4100026A64205D170BD55F8043B89
:104F580098470136EEE755F8043B98470136F2E7E3
:104F68009C8000089C8000089C800008A4800008A1
:104F780002440346934200D1704703F8011BF9E746
:104F8800024B13B1024800F005B87047000000005A
:104F9800A94F0008002301461A46184600F016B823
:104FA80038B5074D074C641BA4101CB9BDE8384040
:104FB80000F052B8013C55F824309847F5E700BF97
:104FC800A4800008A8800008704770472DE9F843BE
:104FD8001C4D0646286898460F469146FFF7F4FF91
:104FE800194B1B68D3F8484128461CB903F5A67429
:104FF800C3F84841656800681F2D05DDFFF7E5FF28
:105008004FF0FF30BDE8F8839EB104EB8501012223
:10501800C1F88890D4F88831AA401343022EC4F806
:105028008831C1F8088102BFD4F88C311A43C4F81A
:105038008C216B1C0235636044F82570FFF7C5FFAF
:105048000020DFE74004002090800008F8B500BF8A
:10505800F8BC08BC9E467047F8B500BFF8BC08BC51
:045068009E467047A9
:10506C000000000000000000000000000000000034
:10507C0000000000001000100010001000100010C4
:10508C00000000100000000000280028002800008C
:10509C0000000000000000000000000000240024BC
:1050AC00007C00240048007C004800480000000000
:1050BC0000380054005000380014005400540038DC
:1050CC00001000000020005400580030002800544C
:1050DC000014000800000000001000280028001038
:1050EC00003400480048003400000000001000109C
:1050FC000010000000000000000000000000000094
:10510C0000080010002000200020002000200020BB
:10511C00001000080020001000080008000800081B
:10512C0000080008001000200010003800100028B3
:10513C000000000000000000000000000000000063
:10514C0000100010007C0010001000000000000097
:10515C000000000000000000000000000000001033
:10516C0000100010000000000000000000000038DB
:10517C000000000000000000000000000000000023
:10518C0000000000000000100000000000080008F3
:10519C000010001000100010002000200000000083
:1051AC0000380044004400540044004400440038DB
:1051BC000000000000100030005000100010001023
:1051CC0000100010000000000038004400440004EF
:1051DC00000800100020007C000000000038004493
:1051EC000004001800040004004400380000000013
:1051FC0000080018002800280048007C000800085F
:10520C0000000000007C0040004000780004000416
:10521C0000440038000000000038004400400078D2
:10522C00004400440044003800000000007C0004EE
:10523C0000080010001000200020002000000000DA
:10524C000038004400440038004400440044003856
:10525C00000000000038004400440044003C0004FE
:10526C0000440038000000000000000000100000A6
:10527C000000000000000010000000000000000012
:10528C0000000010000000000000001000100010D2
:10529C0000000000000C003000400030000C00004A
:1052AC0000000000000000000000007C0000007CFA
:1052BC00000000000000000000000000006000186A
:1052CC0000040018006000000000000000380044DA
:1052DC000004000800100010000000100000000086
:1052EC0000380044004C0054005C00400040003882
:1052FC000000000000100028002800280028007C76
:10530C000044004400000000007800440044007891
:10531C0000440044004400780000000000380044C1
:10532C0000400040004000400044003800000000F5
:10533C0000700048004400440044004400480070E1
:10534C0000000000007C00400040007C0040004059
:10535C000040007C00000000007C00400040007811
:10536C0000400040004000400000000000380044B5
:10537C0000400040005C0044004400380000000085
:10538C00004400440044007C0044004400440044B9
:10539C000000000000380010001000100010001079
:1053AC000010003800000000000400040004000499
:1053BC0000040004004400380000000000440048D1
:1053CC0000500060005000480048004400000000FD
:1053DC000040004000400040004000400040007C85
:1053EC00000000000044006C006C005400440044B9
:1053FC0000440044000000000044006400640054B9
:10540C000054004C004C00440000000000380044E4
:10541C0000440044004400440044003800000000F4
:10542C0000780044004400440078004000400040F4
:10543C0000000000003800440044004400440044D4
:10544C00005400380004000000780044004400447C
:10545C000078004800480044000000000038004478
:10546C000040003000080004004400380000000038
:10547C00007C001000100010001000100010001034
:10548C000000000000440044004400440044004478
:10549C000044003800000000004400440044002890
:1054AC0000280028001000100000000000440044F8
:1054BC00005400540054006C002800280000000028
:1054CC000044002800280010001000280028004488
:1054DC0000000000004400440028002800100010C8
:1054EC000010001000000000007C000400080010F8
:1054FC00001000200040007C00000000001800108C
:10550C000010001000100010001000100010001807
:10551C0000200020001000100010001000080008EF
:10552C0000000000003000100010001000100010EF
:10553C00001000100010003000100028002800445B
:10554C00000000000000000000000000000000004F
:10555C00000000000000000000000000000000FE41
:10556C0000200010000000000000000000000000FF
:10557C00000000000000000000380044003C004423
:10558C00004C003400000000004000400058006453
:10559C0000440044006400580000000000000000BB
:1055AC000038004400400040004400380000000077
:1055BC00000400040034004C00440044004C00344F
:1055CC00000000000000000000380044007C004097
:1055DC000044003800000000000C0010007C00109B
:1055EC00001000100010001000000000000000006F
:1055FC000034004C00440044004C0034000400789B
:10560C000040004000580064004400440044004442
:10561C0000000000001000000070001000100010CE
:10562C0000100010000000000010000000700010BE
:10563C000010001000100010001000E000400040AE
:10564C00004800500060005000480044000000007A
:10565C00007000100010001000100010001000105E
:10566C0000000000000000000078005400540054BA
:10567C0000540054000000000000000000580064BA
:10568C0000440044004400440000000000000000FE
:10569C00003800440044004400440038000000007E
:1056AC0000000000005800640044004400640058EE
:1056BC0000400040000000000034004C0044004456
:1056CC00004C00340004000400000000005800648A
:1056DC0000400040004000400000000000000000BE
:1056EC00003800440030000800440038000000007E
:1056FC00002000200078002000200020002000184E
:10570C00000000000000000000440044004400447D
:10571C00004C003400000000000000000044004475
:10572C0000280028002800100000000000000000E5
:10573C00005400540054006C0028002800000000A5
:10574C000000000000440028001000100028004455
:10575C000000000000000000004400440028002865
:10576C00001000100010006000000000007C000819
:10577C00001000200040007C000000000018001009
:10578C000010001000200020001000100010001865
:10579C00001000100010001000100010001000107D
:1057AC00001000100030001000100010000800085D
:1057BC000010001000100030000000000000007409
:1057CC00004C000000000000000000007B74656DC0
:1057DC00703A30303030303A68756D3A30303030A5
:1057EC00303A696C3A30303030303A64723A303A90
:1057FC00686561743A303A76656E743A303A726D17
:10580C0049643A30313A6D763A307D00496C6C75AA
:10581C006D2030304C0000005365742054656D7061
:10582C002030302E2043000054656D706572617419
:10583C0075722030302E20430000000048756D69D1
:10584C00646974792030302E30250000554E444563
:10585C005247524F554E4400444F574E544F574E9B
:10586C00000000000000000000000000000000002C
:10587C00000000000000000000000000000000001C
:10588C00000000000000000000000000000000000C
:10589C0000000000000000000000000000000000FC
:1058AC0000000000000000000000000000000000EC
:1058BC0000000000000000000000000000000000DC
:1058CC0000000000000000000000000000000000CC
:1058DC0000000000000000000000000000000000BC
:1058EC0000000000000000000000000000000000AC
:1058FC00000000000000000000000000000000009C
:10590C00000000000000000000000000000000008B
:10591C00000000000000000000000000000000007B
:10592C00000000000000000000000000000000006B
:10593C0000000000000000003FF8600000000000C4
:10594C00000000000000001FFFFFF000000000003E
:10595C00000000000000007FFFFFC00000000000FE
:10596C0000000000000005FFFFFFE4000000000045
:10597C000000000000000FFFFFFF8000000000008F
:10598C000000000000000F000FFF000000000000EE
:10599C00000000000000060000FF80000000000076
:1059AC000000000000001860001FF800000000005C
:1059BC000000000000003C780007800000000000A0
:1059CC00000000000000306E00000000000000002D
:1059DC000000000000005073800000000000000078
:1059EC000000000000008000C00005FF0037F00040
:1059FC00001F800000010000FC0000000007FF8079
:105A0C0003F0300000000800380000000000BFFF69
:105A1C00FFE004000001900060000000000087FF20
:105A2C00FFFE00000001E00060000000000001FF2C
:105A3C00FFFFC00000004000600600000000001FD7
:105A4C00FC00080000000000E006000010008000D0
:105A5C000000000000000000600600003001800023
:105A6C00000000000000000070060000300700007D
:105A7C0000000000000000007FC60000E00F0000E6
:105A8C00000000000000000F81CC0010E038000086
:105A9C00000000000000000FC0088600006000003D
:105AAC00000000000000001FF620000021C00000D4
:105ABC00000000000000001FC000000000000000FB
:105ACC00000000000000003E000000000401000087
